:100000000010002065010000910100009101000036
:100010009101000091010000910100009101000098
:100020009101000091010000910100009101000088
:100030009101000091010000910100009101000078
:10004000910100000D4100007502000091010000C7
:100050009101000091010000154100009101000094
:100060009101000091010000910100009101000048
:100070009101000091010000910100009101000038
:1000800091010000910100009101000010B5064CA3
:100090002378002B07D1054B002B02D0044800E049
:1000A00000BF0123237010BDA80000200000000045
:1000B0008852000008B5084B002B03D007480849B8
:1000C00000E000BF07480368002B00D108BD064BC5
:1000D000002BFBD09847F9E7000000008852000091
:1000E000AC000020A400002000000000164B002BF4
:1000F00000D1144B9D46402292029A1A924600214A
:100100008B460F461348144A121A04F0A0FC0F4BFA
:10011000002B00D098470E4B002B00D098470020B2
:10012000002104000D000D48002802D00C4800E01A
:1001300000BF04F05DFC2000290004F0EFF804F09B
:1001400041FCC04600000800001000200000000034
:1001500000000000A8000020B40B002000000000F8
:1001600000000000064880470649074A074B9B1AD3
:1001700003DD043BC858D050FBDCFFF7B7FF00009D
:10018000590200009452000000000020A800002046
:10019000FEE7C0460048704700366E01F0231E4A55
:1001A0009B01D16A0B40802149018B422ED08021D6
:1001B00089018B4205D0802109018B4204D1174B64
:1001C00000E0174B186825E0E023D268DB001340FD
:1001D00080229200934213D007D8002B12D0013A0C
:1001E000FF3A934210D10F4814E0C022920093428C
:1001F00004D00132FF3293420BD005E00A4809E0F7
:100200000A4807E00A4805E0002003E080200002D9
:1002100000E008487047C04600800C400400002001
:100220000000002040B56400809FD500C0D8A70022
:10023000804F1200406F400108B5FFF7AFFF044B3D
:100240005A680F231340D840024B186008BDC046BF
:1002500000800C40C40100207047802000027047DD
:10026000FA20800070470000014B18687047C046B4
:100270000000002002210C4A0C4B516059600139EA
:1002800091615A6A0A4B0B48197889000A5019780B
:100290000948890009588A4202D91B789B001A50E4
:1002A0000122064B1A707047000001400004014013
:1002B000C4000020C8000020E80000200801002041
:1002C000054B8000C258C158044BC358C808101AC7
:1002D0008342804140427047E8000020C80000206F
:1002E00010B5174801F027FB0023164C2370237824
:1002F000072B21D82378144AD35C002B18D02178FF
:100300000F48C9B201F00CFB002210481049114BF4
:1003100042624A621A70013242604A601A78002AC8
:1003200006D104200C490A6982430A6130BFF5E70F
:1003300023780133DBB2D9E7014801F0F7FA10BDA9
:1003400000100040C40000208C4A00000000014062
:10035000000401400801002000ED00E030B587B046
:1003600001AC221C1B4B23CB23C2042503CB03C2AD
:100370001948012101F0DCFB1848012101F0D8FBEC
:100380001748012101F0D4FB164A1748536C01218C
:100390002B43536401F0CCFB9022144B12051A60DE
:1003A0000A22DA61093ADA6000225A62104B114AD5
:1003B00011481A60114A211CDA61114A1A6481221B
:1003C000104B52041A6101F085FA0F4B1D6007B003
:1003D00030BDC046784A000040810400000204009D
:1003E0000012040000800C400042040000000140A4
:1003F000000401400000010A00100040FFFF00005F
:100400000100100A00C00C4000E100E0084B10B5EC
:100410001C78002C01D0002009E001221A70054B45
:10042000E358002BF7D0984704340028F7D010BDCC
:100430003C010020080000200A4A08B51278031C7D
:10044000002A0AD000280ADC2C225343081C064943
:10045000C91804F0F3FA002002E0044800E0044860
:1004600008BDC0463C01002010010020050011809D
:100470000200118008B50B4B1B78002B0ED00A4AE6
:100480001368002B0CDC011C581C10602C225343F9
:100490000648C01804F0D2FA002002E0044800E048
:1004A000044808BD3C0100200C0100201001002080
:1004B000050011800100118070B580290FD1094914
:1004C00012010C68084DA6180020AE4202D918602F
:1004D000064805E01C600B689A180A6000E00448B2
:1004E00070BDC04610000020080B002001001180E4
:1004F00002001180004870470400118008B500F028
:1005000021F900F0DDF8002008BD70B50E1C1D1C9F
:10051000002420013018AC4205D00021102204F044
:1005200096FA0134F5E7002070BDF7B50F1C0420E2
:100530000B2100F029F9062000F009F9089B01229F
:100540005D1C6B46ADB29E1D2B021343301C022175
:100550003380002400F0D6F8099B200138189C4213
:1005600015D0102100F0CEF8099B013B9C4202D12E
:1005700001235B4204E0FF226B1C1B191B02134387
:10058000301C02213380013400F0BCF8E4E7022083
:1005900000F0DDF80B21042000F004F90020FEBD7E
:1005A00008B50821002000F0EFF800200A2100F033
:1005B000EBF808BD10B50C1E02D0FFF7F1FF07E005
:1005C000081C0A2100F0EEF8201C082100F0EAF8CF
:1005D000002010BD30B58DB000F0B4F800F070F818
:1005E00000F0BAF800220F21131C022000F0BEF820
:1005F00000220721131C032000F0B8F800220B2171
:10060000131C042000F0B2F800200821021C031C77
:1006100000F0ACF800200A21021C031C00F0A6F830
:1006200000220A21131C042000F0A0F804200A2153
:10063000402200F0C5F8041E30D11A4B01A80193E6
:10064000012303747F334360C3608360164B44749B
:100650004361164B8361164BC361164B0362164B05
:100660004362164B8362FFF705FF041E16D1FFF7A6
:1006700097FF0B21042000F087F8062000F067F8B0
:100680006B460425981C0221058000F03BF80220EF
:1006900000F05DF8281C0B2100F084F8201C0DB040
:1006A00030BDC046944A0000B5050000B904000002
:1006B000F50400002B0500000B050000FD04000000
:1006C00030B587B06A460A4B23CB23C223CB23C263
:1006D000084D0948012101F02BFA084B281C6946F6
:1006E000029301F033FF0020054B6B6507B030BD6E
:1006F000AC4A000000C4004000320400E06735004E
:100700000A03000038B5041C0D1C002D11D0012D6A
:1007100001D0E30706D52178094801F051FF013DDA
:100720000134F2E72188064801F04FFF023D023410
:10073000EBE7034B1B699B06FBD5002038BDC04689
:1007400000C4004008B500F011FB002008BD08B54A
:1007500000F0F0FB002008BD08B50348012101F0BE
:10076000E7F9002008BDC0460072040010B5141E51
:1007700005D1C0B2042201F087FC201C00E0014832
:1007800010BDC0460100138001238B40191C242397
:10079000C0B25843024BC018016100207047C046E8
:1007A0000060004001238B40191C2423C0B2584331
:1007B000024BC018416000207047C04610600040E6
:1007C000F0B5041C85B00D1C28480121019201F0F0
:1007D000AFF9A02102208903012201F02FFE244954
:1007E000244B8A68012713408022920013438B60B8
:1007F0008B68FD3AFF3A13438B60291C00250023C8
:10080000E0B201F041FC1C4903AC0322201C18316A
:1008100004F014F9194E1A48012101F089F9194818
:10082000092101F015FB301C022101F02BF90121F7
:10083000301C01F07DF9201C25706570A77001F057
:100840002FFE301C01F03CFA019903F01BFF411E02
:100850000902090A281C01F001FE01F031FE381CD2
:1008600001F00AFE281C05B0F0BDC046004204009D
:1008700000C00C40FFF8FFFFAC4A0000600610000B
:1008800000230200020018007FB5041C01211F484C
:1008900001F04EF91E4B22689A4235D11D480121C4
:1008A00001F046F9207961790A22012301F0ECFB7D
:1008B000E179A0790A22012301F0E6FB09212579DB
:1008C0000122131C6079144E8340181C24236B43AF
:1008D0009B19161C18606079013986405E600029FA
:1008E000EED1237A033120681B020B4383636B46EE
:1008F0001A705A706A46236969460293E368019345
:10090000237D137301F02EFC7FBDC046408104009F
:1009100000A0004000B204001060004038B5051C83
:1009200001F054FD054C40B2012806D1013C002CD9
:1009300003D0281C01F034FCF5E738BDE193040036
:1009400070B586B06A461D4B012623CB23C223CB4C
:1009500023C21B48012101F0EBF81A48012101F0E4
:10096000E7F80C226C46184B184D1A60184B281CDF
:1009700069460293A67301F0E9FD8022154B120629
:100980006B652B68032013432B600721042200238F
:1009900001F07AFB331C03200621022201F074FBD4
:1009A000331C02200E21042201F06EFB02200F21D5
:1009B0000422002301F068FB06B070BDC84A0000A5
:1009C00000320400007204004001002000C4004016
:1009D000A08601000B030000054A08B51368011C3E
:1009E000002B01D0013B1360024801F0DFFD08BD80
:1009F0004401002000C40040074B10B51C68FA23D6
:100A00005B005C43FF20FFF7E7FFFF2802D0013CBB
:100A1000002CF7D110BDC04640010020802208B54F
:100A2000034BD2019A65FF20FFF7D6FF08BDC046F1
:100A300000600040802208B5064BD201DA65FFF75E
:100A4000DBFF0123FF2802D0FFF7E8FF0023181C7B
:100A500008BDC0460060004008B50248012101F011
:100A600067F808BD0032040008B5FFF7E3FFFFF7A1
:100A7000D5FF0248002101F05BF808BD00320400F8
:100A8000F8B56424061C0D1C224B1B685C43FF2038
:100A9000FFF7A2FFFF2803D1013C002CF7D136E07D
:100AA0000024FE2833D10F211B4BA81C5F681C6853
:100AB0005A688A4302390A4380215A601A684905F4
:100AC0000A431A60C02215491201DA600A6882429C
:100AD00002D3023A521B00E000220A601049321C85
:100AE000081CD963D86319690906FCD50A49496A03
:100AF0001170090A51700232511BB142F2D11969C9
:100B0000054A0906FBD5536A576014600124201C6E
:100B1000F8BDC0464001002000C400404401002050
:100B2000FFFF0000F8B5051C0E1CFFF765FF002451
:100B3000FF2848D1301CFFF74FFFFD2E42D00F2079
:100B4000224B234F5E6819685A6882430238024379
:100B500080205A601A68400502431A60C0221D486E
:100B60001201DA600268BA4203D91B4C1219026002
:100B700000E004608022281C9200AC1842780578BE
:100B800012022A431D696D06FCD5104D0230EA633E
:100B9000A042F3D11A695206FCD510480B4AD06323
:100BA00018690A4A8006FBD5C0231B01D360FF20C9
:100BB00056601160FFF710FF1F23184005384442AC
:100BC000444100E00124201CF8BDC04600C40040A0
:100BD0000102000044010020FEFDFFFFFFFF0000B6
:100BE00038B543B2041C0D1C002B07DA3720002156
:100BF000FFF7F6FF012832D87F231C40FFF70EFFD6
:100C0000FFF718FF031CFF20002B28D0BF3820431C
:100C1000FFF7E2FE280EFFF7DFFE280CC0B2FFF759
:100C2000DBFE280AC0B2FFF7D7FEE8B2FFF7D4FE1A
:100C30009520002C03D00E38082C00D08638FFF702
:100C4000CBFE0C2C02D1FF20FFF7C6FE0A24FF20AA
:100C5000FFF7C2FE030602D5013C002CF7D138BDD8
:100C600008B5044A0448002101F032FC0C22034B71
:100C70001A6008BDA086010000C4004040010020A9
:100C800008B5054A0548002101F022FCFA22044B70
:100C900092001A6008BDC04600127A0000C40040ED
:100CA00040010020024B1B685843024B18607047FC
:100CB0004001002044010020024B18684342584183
:100CC000C0B2704744010020FEE770B588B0151C23
:100CD00003AA11800421518001A90B700224012371
:100CE000049102AE13811482111C0696FFF716FEC2
:100CF000002802D000232B6008E003227378201C18
:100D000093431A1C33781B02D3182B6008B070BDB4
:100D1000F8B51C1CE523071C0E1C151CFFF7D5FF9E
:100D2000022802D00120404216E02A680B4B381CF2
:100D300053430B4A5B0B9B182B60311C221CE02396
:100D4000FFF7C3FF0228EDD100202268054B534373
:100D5000054A5B139B182360F8BDC046093D00009F
:100D600090E8FFFFCD550000FE48FFFFF0B58BB0C7
:100D7000032209A8664903F061FE0022654C236C3A
:100D800001925B0705D46448012100F0D1FE0123E4
:100D90000193624800F006FF4023E26A03211A40F3
:100DA00006905E48009201F053F85D4800F03AFE6C
:100DB0008021079049005A4800F064FEA36D00228C
:100DC00001240292234204D15548211C00F0B0FEB8
:100DD000029472B6534A1368591C01D00133136050
:100DE0000126514C2568354012D023688021039399
:100DF000A3684E4A0493E368E569059300232360E2
:100E0000E3610733A3617A334901FF33D15003E033
:100E10002E1C059504950395002309A8837001F005
:100E20003FFB8022424B52011A60414A13685B002B
:100E300013600CD0616862683B4B9142FBD03C4927
:100E40005A6809680139FDD85B689342EDD0384B88
:100E50001A6852081A6009221B68013A002A17D042
:100E60005B0815D032480168194301606768616802
:100E70008F42FCD02C494F682D4908680138FDD8B5
:100E800029484068B842E8D0086898430860E4E719
:100E9000244A1368002B04D0013B1360002B00D1BF
:100EA00062B6002E11D007991D4800F0EBFD01201D
:100EB00001F0ECFA049B0020A360059BE360039B18
:100EC0002360E56101F0E2FA02E0301C01F0D4FA9F
:100ED000029B002B03D01248002100F029FE069B44
:100EE000032B03D00D48191C00F0B2FF009B002B10
:100EF00004D10120191C1A1C00F076FF019B002B65
:100F000003D00548002100F013FE0BB0F0BDC04631
:100F1000E04A000000800C4000230200020018009C
:100F200060061000980100200000084000E100E089
:100F300014000020031C0849002B0CD0013B882220
:100F40001202003253430A68D80AD20A5043800979
:100F500001D00138FDD8704714000020044B1A78E6
:100F60000123002A02D0034B03600023181C7047A2
:100F70008401002078010020F0B5061C0C4804789C
:100F80000120002C13D00B4CB51827880330BD422C
:100F90000DDC6788CD18BD4209DC0130002A06D07F
:100FA000002B04D00020A680E18022816381F0BD67
:100FB0008401002078010020F0B5021C514887B060
:100FC00004780120002C00D19AE04F4C2468002CBA
:100FD00000D195E04D48457C002D00D08FE085681C
:100FE000ED080395007C1D1C012801D05D425D4188
:100FF0002B1C581E8341DBB205935B42DBB202938C
:10100000434B039EDB88C9188BB25E4304930023D5
:10101000A61901930D9B002B6FD03D4B0D991D8997
:10102000AD1A8D4200D90D1C0D99491B0D919C885C
:101030001419A4B2072D21D8059B2D19002B0ED011
:10104000AC4245D207230121234099400B1CE20802
:10105000B218117801340B431370A4B2F0E7AC421C
:1010600036D20721012221408A40111CE308F318DF
:101070001A7801348A431A70A4B2F0E7072222409A
:10108000E4083419002A0CD001219140013920785C
:10109000CBB20299083A994303400B432370AD1831
:1010A0000134EF0809D0201C02993A1C03F0CFFC50
:1010B000FB00ED1AE419002D0AD00123AB401D1CE2
:1010C000029A2378013DEDB2AB4315401D432570D4
:1010D000019B049A0F4899181F224B110A400121C5
:1010E00091400A1C9B0019580A431A50019B002288
:1010F00001330193039BF6188CE7181C00E00A20CB
:1011000007B0F0BD84010020480100204C01002000
:1011100078010020080B00200A4B70B50A4D9E692B
:101120005968DA68041C181C2B1CB0472B680B206C
:10113000002B06D023600548FF21102203F087FC16
:10114000002070BD4C01002048010020080B002049
:10115000F7B50020184E337883422BD1FFF756F9AC
:10116000002827D1154D291CFFF766F9002821D149
:10117000134F381CFFF7D0FF041E1BD13B680B3008
:10118000002B17D0EB68696898B2031C0D4A8FB228
:101190005080508117809480D480178101227B4336
:1011A0003270201C01930094211C221C231CFFF789
:1011B00003FF201CFEBDC046840100204C0100201E
:1011C00048010020780100200020F0B50126071C0E
:1011D000224B85B09C68224BE4081D68C319039319
:1011E0001E4B039AD9688A421FD201222A4001D09D
:1011F000013011E000280ED0211C79438C4619499A
:101200000968019000971F6A181C61445B68B84721
:10121000002820D1039F0137C3196D08DB06DDD1FB
:101220000F4BB200D5580136D8E7002806D10C483C
:101230000021102203F00BFC00200CE07C43094A43
:101240001168019000970919181C1C6A00225B683C
:10125000A0470028EBD005B0F0BDC0464C010020EF
:10126000080B002048010020F7B5051C0C1C0520C8
:10127000002D2DD000292BD00968A2680138914299
:1012800026DAE368676801939F4221DA2E68B08806
:101290008446032061451BDBF3889F4218DB3389BA
:1012A000934215DD7689019B9E4211DD88B2B9B269
:1012B000CB1882180132013392B29BB2FFF75CFE69
:1012C00021686268A368E468E960AC612A616B61C7
:1012D000FEBD000010B5041C86B00520002C16D001
:1012E000002363600B4B01A8A360FFF737FE0028C3
:1012F0000DD1019B02901A880390013A2360049259
:101300005B88201C013B02A90593FFF7ADFF06B0E7
:1013100010BDC046FFFFFF0008B5031C0520002BD1
:1013200006D000201B68011C1A885B88FFF724FE8A
:1013300008BD37B50521002814D0041C4568FFF707
:10134000EBFF011E0ED124682A0C2B0AEDB200958A
:1013500065892089D2B26843DBB20190081CFFF78F
:101360002BFE011C081C3EBD10B5040C0C70010ABC
:101370001170187010BDF7B5041C0F1C161C052544
:10138000002812D00C3000F0A1F9043D00280CD048
:10139000A468B8B2220C230AE4B20195B1B2D2B269
:1013A000DBB20094FFF708FE051C281CFEBDF7B554
:1013B0000F1C161C1C1C0525002811D00C3000F039
:1013C00085F9043D00280BD0220C230AE4B20195D4
:1013D000B8B2B1B2D2B2DBB20094FFF7EDFD051C9A
:1013E000281CFEBD10B5041CC0680123814200DB2F
:1013F0000023D8B26369994201DD02231843A3692F
:101400009A4201DD0423184323699A4201DA082332
:10141000184310BDF0B51C1C85B0161C0523002810
:1014200032D00269043B96422EDB826996422BDC65
:10143000A14202DD0B1C211C1C1C47690123B9427F
:1014400022DCC26894421FDB0D1E954200DA151C97
:101450000D236B44191C0E236B441A1C0F23806848
:101460006B44FFF781FFB1B26E466B46F67B5A7B49
:10147000A8B29B7B0096BC4200DD3C1C641B01347F
:101480000194FFF799FD031C181C05B0F0BDF0B5E1
:10149000051C87B0052400284DD0C068043C81425B
:1014A00049DB6869814246DC9A4202DD101C1A1C45
:1014B000031CA869012482423DDC2E69B3423ADB59
:1014C000B24200DA321C834200DD031C9B1A013356
:1014D00003936B4688B29B8991B20122FFF74CFDC2
:1014E000041E28D10D270E2602ABF618FF180F2375
:1014F000321C029602AEA868391C9B19FFF734FF14
:1015000002A9C97B029B3A781B7800910399201CA1
:101510000191211CFFF750FD041E0CD16B69A889B5
:10152000298AC218AB690132CB18013392B29BB23F
:10153000FFF722FD041C201C07B0F0BDF0B587B0FA
:1015400001900293019B0C1C151C0520002B00D15F
:10155000BAE0029B994204D101980C9BFFF797FFD8
:10156000B2E00C9B01989D4203D1029BFFF752FF12
:10157000AAE0FFF737FF00260390029901980C9A22
:10158000FFF730FF371C0490049B039A1343DBB230
:10159000002B42D0131C049A01201340DBB2002B15
:1015A00000D091E0039B002B00D1049B034202D0AA
:1015B000019BDF6803E09A070BD5019B5F690C9BD9
:1015C000581B3B1B5843029B191B03F0EBF82E18CA
:1015D00011E05A0702D5019B9E6903E01B070AD55B
:1015E000019B1E69029B181B731B58430C9B591BC4
:1015F00003F0D8F82718039B0198391C321C002BE4
:1016000005D0FFF7EFFE351C03903C1CBCE7FFF74D
:10161000E9FE0C9604900297B6E7029B0C9A03939E
:101620000C9B271C2E1C5B1BAA4201DC0C9BEB1A9B
:10163000029A0299A21AA14200DD0A1B002104911C
:10164000934207DD0C9B2F1C0393029B261C0C93DB
:1016500001230493039BBB4205DA331C0C9E0C93BD
:101660003B1C039F0393039BDD1B0C9BF31A02930C
:101670000C9BB34201DD9B1B02930123EC0F641909
:1016800005930C9B64106442B34215DA01235B425C
:10169000059311E0049B0198002B11D0311C3A1CDA
:1016A000FFF769FE00280FD1029BE418002C02DD31
:1016B000059B641BF6180137039B9F42EADD02E09D
:1016C000391C321CECE7002007B0F0BD10B5031E3A
:1016D0000FD01C680020A1420BDB9C68A14208DCF3
:1016E00059688A4205DBD968D00FCB17914258411F
:1016F000C0B210BDF0B587B0041C0CA800780590EE
:101700000520002C00D18FE00D1C203DEEB20338E7
:101710005E2E00D988E0201C28300078ADB2022867
:1017200012D10C252E290FD006D8013D20290BD02F
:101730000335252908D005E00A253A2904D00335C8
:10174000432901D030398DB2218C0220A9426BDDB2
:1017500000270493E369039202930097A31DDB7FA4
:10176000009A93425ED9E31CDB7F012B05D0022B4C
:1017700006D1029A6B009B5A06E0029B5B5D03E078
:10178000029AAB009B589BB200260193631DDB7F3E
:10179000B34227D9019BDB0708D5039B009A99190F
:1017A000049B201C9A18FFF7E6FD0BE0059B002B1D
:1017B0000DD0039B009A9919049B201C9A1863680A
:1017C000FFF7F5FD01282FD843424341FF18019B45
:1017D00001365B080193B6B2D8E7059B002B09D10F
:1017E0000136B6B2631DDA7F0333DB7FD3189E4226
:1017F000F3DB0EE0039B009A9919049B201C9A18B6
:101800006368FFF7D4FD01280ED843424341FF1817
:10181000E6E7231DD97F009B6D1801339BB2ADB263
:1018200000939BE77842784107B0F0BDF0B587B0F0
:1018300003930CAB40CB051C1B7805200593002DB2
:1018400034D0002932D02B1C28331B780338002BCE
:101850002CD08B18049300230C1C039F0293049B31
:101860009C4220D021780A2907D1AB1DDB7F039F42
:10187000F618EB1DDB7FF61813E0059B281C009380
:101880003A1C331CFFF736FF01280FD8434243416F
:10189000029AD31802936B1DDA7F0333DB7FD318D0
:1018A000FF180134DBE702984342584107B0F0BD0E
:1018B00008B5052300280AD01C301022002903D1C6
:1018C00003F0C5F8052302E003F0B8F80023181C64
:1018D00008BD00004B7A10B50C7A4A6824021B013F
:1018E0002343120613431C1C0A784B78D2079B072C
:1018F000134323430360CB68084A1B0213438A7ACD
:1019000012071343CA7A1204134301224360036887
:1019100093430A7C1343036010BDC046B00000012E
:1019200007224368934319434160704701220368CB
:1019300093430360704701220368134303607047B9
:101940000A4970B5401800210E1C094D094B85420B
:101950004E410725084ADC6BDA635A685A68AA4385
:1019600032435A608C4200D0D96370BDFFDB0BFF5D
:10197000FF23F40000000C40711B000008B5FEF7C7
:1019800009FCFFF7DDFF08BDE0228021174BD200E4
:101990005B69890013408B4218D006D8002B0CD00D
:1019A0008022520093421AD017E0C02189008B4256
:1019B00005D0934211D10E4816E00E4814E00E4BAC
:1019C000DB6C1B0E122B0CD80C480DE00A4BDB6CA9
:1019D0001B0E122B07D80A4806E0002004E0094835
:1019E00002E0094800E009487047C04600800C400A
:1019F000406F4001809FD500B081E00F40420F0052
:101A0000C0CF6A00C0D8A700804F120040B5640064
:101A1000034B5A6DD20702D41A6D0242FCD17047B3
:101A200000800C4003061B0F043B021C00B5012084
:101A3000032B1FD8181C02F01BFE02050B110E4BC6
:101A4000986801E00C4B58680F2318400E3B0DE0DE
:101A50000A4B9A420DD1084B986EF5E7084B9A4213
:101A600007D1054B186F03231840023B8340181C15
:101A700000E0012000BDC04600800C406006100060
:101A80007007140003061B0F043B10B5032B47D847
:101A9000021C181C0C1C02F0EBFD020E2032081C6C
:101AA00002F072FF1F221F49101A8B68103A9343ED
:101AB0001843886034E0FFF761FF201C02F064FFE8
:101AC0001F221849101A4B68103A93431843486074
:101AD000FEF7B2FBFFF734FF22E0134B9A421FD10F
:101AE0000420FFF795FF201C02F04EFF1F220D4936
:101AF000101A8B6E103A93431843886610E00B4B14
:101B00009A420DD14020FFF783FF201C02F03CFFDA
:101B10001F220449101A0B6F1C3A9343184308679D
:101B200010BDC04600800C40600610007007140015
:101B300070B5041C0005000F0138092825D802F0F3
:101B400097FD05081424240B0E24241100200F4DAA
:101B50000DE000200E4D0AE001200E4D07E01020A0
:101B60000D4D04E000200D4D01E000200C4DE4037C
:101B70000E1CE40E002801D0FFF74AFF0123A3400A
:101B8000A640296899433143296070BD08800C4004
:101B900044800C4058800C4060800C4078800C40A1
:101BA00040800C400F231840013800B5052804D8A8
:101BB00002F05EFD051B2D03034000203BE01E4BA1
:101BC0008022D86AF0239B010340520103209342F4
:101BD00031D080220138920193422CD0174A9B18B1
:101BE000584243410520C01A25E00321124A936A56
:101BF0000B40181E02281ED006208B421BD0081C4A
:101C0000012B18D0936A0238DB0311D413E00C23A4
:101C1000094A0220916A0B40082B0CD004300C2B8F
:101C200009D00338042B06D0936A0238DB0202D5B0
:101C3000083000E0072000BD00800C4000F8FFFFE6
:101C400010B5041CFFF7AEFF1A4A944204D01A4B99
:101C50009C4206D0031C08E0184B986A03230340FB
:101C600003E0164B9B6A1B079B0F0020032B20D819
:101C7000181C02F0FDFC0C020508FEF7EEFA18E055
:101C8000FEF7F2FA15E0FEF7D7FA400811E09442A9
:101C900003D0094B00209C420BD1084B10219B6ABA
:101CA000944200D004310020CB40834201D0FEF7A3
:101CB000D7FA10BD0200180003001A0000800C4083
:101CC00008B5F8239B031840E0231B0398424CD02F
:101CD00010D880239B0298422AD002D8002841D0F5
:101CE00046E08023DB0298421DD0C0231B039842AC
:101CF00031D03DE0A0235B03984225D009D8802352
:101D00005B03984234D11B48FFF79AFF1A4B9A6E37
:101D100013E0C0235B0398420DD0D0235B039842AD
:101D200026D116480DE0FEF739FA134B9A6804E005
:101D3000FEF782FA1DE00F4803E00F231340D8405E
:101D400017E0FFF77DFF14E00C48FFF779FF0A4B1F
:101D50001A6F0323F2E70A48FFF724FF072804D08D
:101D6000082805D1FEF71AFA03E0FFF70DFE00E0A0
:101D7000002008BD0200180000800C4003001A007B
:101D800006000C0070B5061E042E28D8144B02F075
:101D90006FFC0305080B0E00DC6A09E0DC6A240412
:101DA00003E0DC6A240200E0DC6A240E01E01C6B24
:101DB000E4B20120FFF7F6FE051E052D01D1FFF765
:101DC000DDFD084A3002D368DB0ADB021843044316
:101DD000D460052D03D1FEF72FFAFFF7B1FD70BDDA
:101DE000B081E00F00800C4038B504282AD802F0FA
:101DF0003FFC0F0B0315070008200423032410E009
:101E00002020102305240CE080204023072408E034
:101E10008020802380005B00092402E0012302204F
:101E20001C1C094D00290AD02B62002A08D001236E
:101E3000A3401C1C054B1B682342FBD000E028621A
:101E400000F0DCF838BDC04600800C402C800C400F
:101E50000F23184010B5041E012C04D000285DD0BB
:101E6000032821D95AE0881E032857D802F000FC25
:101E70000B0205080120032407E00220041C04E0F3
:101E80000320012401E00020042401210A1CFFF7A3
:101E9000ABFFFFF773FD224B5C6200F0AFF8FEF77B
:101EA000CBF9FFF74DFD39E0481E082836D802F07F
:101EB000DFFB2008103535183535050001230022D9
:101EC00019E0012100200A1CFFF78EFF00230222E7
:101ED00011E00120021C011CFFF786FF00230122F4
:101EE00009E004230F4A11680B4313600023032207
:101EF00001E000231A1C0A49022C07D18C6A0A4807
:101F00001B04204002431A438A6207E092001B052B
:101F1000886A1343054A024013438B6210BDC046D2
:101F200000800C4040800C40FCFFFEFFF3FFEFFF01
:101F300070B50120102440251E491F4ACE6FCA6784
:101F40001E4A064012681E4B1040144015400443C0
:101F50002C43042515402C4380256D0015402C434F
:101F60001C62F024A401224080246401A24208D013
:101F70008024A401A24209D080242401A24210D1CD
:101F800009E0DA6A1206FCD5032408E0DA6A920551
:101F9000FCD5042403E0DA6A1207FCD50224084ABF
:101FA0005462002801D102221A62002E01D00023BF
:101FB000CB6770BD08800C400E58000088010020DF
:101FC00000800C4010B50424094B0A4ADB6A0A4918
:101FD00013600B6923430B6130BF002802D0FFF769
:101FE000A7FF04E013685B0501D4FEF725F910BDD7
:101FF00000800C408801002000ED00E0024BDA6A0E
:10200000024B1A607047C04600800C4088010020D7
:10201000F7B508AA157809AA01931478072902D8F8
:102020008A00134E03E00A1C124E083A920007235E
:102030009340904037688C409F4338433060012084
:102040008840019BC2438B408D40211C0A4E37685B
:1020500017403B433360094E336813401D43084B20
:1020600035601862074B1868024011431960F7BDCC
:102070000061004004610040086100400C610040C4
:10208000FC60004010610040F0B5002A0CD0012532
:1020900024248D404443002B03D0194EA4192561FC
:1020A00002E0184EA419656024244443144D6419B9
:1020B00007290AD80F278D00AF406668BE43171C5A
:1020C000AF403D1C354365600AE00F270E4EA56802
:1020D0008E19B600B740BD43171CB7403D43A560FD
:1020E000002A0CD1012424328C404243002B03D01F
:1020F000034BD218146102E0024BD2185460F0BDB9
:102100000060004010600040F8FFFF3F70B5041C05
:10211000151C081C1E1C002A1DD022680E4B1A40DC
:10212000226022681340320213432360002902D147
:102130000A48FFF7C5FD2368094BA900401A995DBD
:10214000694302F09FFA236801389B0702D50028F3
:1021500000D10130206170BDFFFCFFFF4081040011
:102160007C5000000023022270B5012643630B4B14
:102170000D1C03630368041C93431A1C4B787340C3
:10218000B34013430360AA680B7B4968FFF7BEFFA7
:1021900023682A78B3431343236070BDCFFF010047
:1021A0008849F0B5FC22884200D009E1864B9E6840
:1021B0001F785C881A79C0208D6AC00005420BD058
:1021C0005C801A71AA0501D5FD2202E06A0501D5DD
:1021D000FE225A700922E6E0082F00D9DEE0381C02
:1021E00002F046FA051B425C744E96AAD2001A71A0
:1021F0005C8074883288E00604D50620120A02400A
:10220000EA3004E0FE200240A00701D5012002438D
:10221000012018704A624860C6E08020054200D064
:1022200079E040273D4201D101207EE00F636548FF
:10223000778884460225F80606D560461A713278FA
:102240005C801D704262AFE02F4273D05C80072437
:102250001A71D2001C70B6183289012A00D0A3E08E
:102260006046121942609FE08020054253D140270A
:1022700002203D4259D00F63758805425AD00BE0C9
:10228000D00030180589A5423AD80420748801325C
:10229000D2B2204029D0002403278CE71A715C8039
:1022A00074883288E00605D50620120A0240EA301A
:1022B000024301E0FE2002400420044201D0012438
:1022C00022431870012048604A626DE08020054278
:1022D00021D1402704203D4227D00F637588054255
:1022E00028D01A715C8007225DE001252C4002D0C5
:1022F00058801A7138E0012A00D85CE75C80F8E762
:102300001A714268601C125D58804A6206224AE0D7
:102310008020054205D01A71FF225C8008635A7044
:1023200022E04020054204D13A3818705C801A71CE
:102330003AE0086305273EE707205C8018701A71B1
:10234000A80631D5D200B6183089A2B2CD69824232
:1023500003D27468561C5E80A5545A88824208D302
:10236000012801D108224A6008221A70063A4A6000
:102370001AE004244C60012816D00138824213D19F
:102380000820104A50600FE01A7180220820520085
:1023900018705C80154207D00A631BE71A71FB2294
:1023A0005C805A70F23A1A7018780122092807D115
:1023B00000224A6301215956012900D15A705A78E6
:1023C00050B2F0BD00A000408C010020184B10B5A9
:1023D000984201D0FC2028E09A68D20701D520223B
:1023E0005A604A88900702D508890028F2D052071F
:1023F00002D50A8A002AEDD0002001240D4A10716E
:102400001070547050809160C0225A609A6A92068F
:1024100001D5074AD269FC21074AC9001A635A6BE1
:1024200003480A435A63FFF7BBFE40B210BDC046E3
:1024300000A000408C010020CFFF010007231A40BC
:1024400080235B051A43FC239B0319400430024B95
:1024500011438000C150704700C00C40002803D0D9
:10246000012803D1024B00E0024B19607047C046BF
:102470000C000840080008400121034A13688B4300
:10248000184310607047C04600000840034B002806
:1024900002D001221A6200E0186270470000084072
:1024A00042780378002A01D0022213438278002A5E
:1024B00001D004221343014A136070470000084012
:1024C00008B50020FFF7D8FF0120FFF7D5FF08BDB2
:1024D00038B5041C151C081E02D10A48FFF7F0FB92
:1024E000691E40000818291C02F0CCF88001021C6B
:1024F00061690548054B403A02400B401A4362614E
:1025000038BDC0464081040000FF1F003F00E0FFCF
:102510000A4B0B4AC360002303604260094A836090
:102520004361C3648264084A4365904200D10365F5
:102530008365904201D10023C3657047AA0E000055
:1025400005100000F91F000000C4004038B50D1C44
:10255000041CFFF7DDFF01222B8A21681343AA7BAD
:102560000B43501E82419202134323602B7D22684D
:10257000591E8B415B0713432360AB7C002B03D0B8
:102580001022EB7C1343A36580222B7B5201134363
:102590006360201C6968AA68FFF79AFF6B7B002BB9
:1025A00001D01023E3602B78E36038BD03695B063C
:1025B000FCD5416303699B06FCD5C069C0B2704776
:1025C00003695B06FCD54163704703695B06FCD574
:1025D000C1637047F7B50123002800D08BE0474D59
:1025E0002B789A0700D586E0FEF736FA0A24FEF724
:1025F00037FB013CFF20E4B2FEF7EEF9002CF8D1E6
:10260000201C211CFEF7ECFA061E012E01D000242E
:102610005EE0FA208000FEF745FBD5210820490046
:10262000FEF7DEFA012831D1FF20FEF7D5F901AF20
:10263000E0550134042CF7D1BB78012BE7D1FB78AE
:10264000AA2BE4D1FEF738FB002804D0FEF734FBB8
:10265000011EDCD107E08021A920C905FEF7C0FAE0
:102660000028EFD1F2E73A20FEF7BAFA0028CED1DF
:10267000061CFF20FEF7B0F9B8550136042EF8D13C
:102680003B780C245B0623D4341C21E0A920211CB8
:10269000FEF7A6FA012801D9341C01E00224A9267C
:1026A000FEF70AFB011E0DD0FEF706FB0028AED197
:1026B000802110208900FEF793FA4342584140429E
:1026C000044005E0301CFEF78BFA0028E8D1EBE768
:1026D0000B4B01261C80FEF7A1F9002C05D02B78AE
:1026E000B3432B70FEF7CCFA04E0FEF7BDF92B786C
:1026F00033432B702B78181CFEBDC04618000020F9
:102700009C0100200123002801D1024B1B78181CDA
:102710007047C0461800002070B5061C0D1C1C1C1C
:10272000111C0420002E37D1002B35D01B4B013853
:102730001B78DB0730D41A4B1B881B0700D45102CF
:10274000012C0DD11120FEF74BFA00281FD180215A
:10275000281C8900FEF794F944424441E4B216E093
:102760001220FEF73DFA002811D18021281C890093
:10277000FEF786F9002806D08023013C9B00E4B2D6
:10278000ED18002CF1D10C200021FEF729FA601E73
:102790008441FEF743F9E0B270BDC0461800002046
:1027A0009C010020F8B5071C0D1C161C1C1C0420E5
:1027B000002F44D1002B42D0214B01381B78DA077F
:1027C0003DD401385B073AD41E4B1B881A0700D44E
:1027D0007602012C0DD11820311CFEF701FA0028D9
:1027E00028D1281CFE21FEF79DF944424441E4B261
:1027F00020E00622134203D09720211CFEF7F0F9B7
:102800001920311CFEF7ECF9002813D1281CFC21FB
:10281000FEF788F9002806D08023013C9B00E4B233
:10282000ED18002CF2D10020FD21FEF77BF90028E5
:1028300000D10124601E8441FEF7F0F8E0B2F8BD3B
:10284000180000209C010020F0B5042485B0002869
:1028500000D0E7E0754B013C1878C00700D5E1E0F7
:10286000151C081E0E2800D9D9E001F001FF08143C
:102870004D51D8D8D8D811D8A3A8AAB6C600FEF70B
:10288000D9F8002801D10124CAE0FEF7C7F894E086
:1028900001221A7091E009200021FEF7A1F9041E1F
:1028A000F1D168461021FEF7EBF80028EBD06B461B
:1028B0006A4669461B78527A9B09097A012B04D132
:1028C0000902531801339B0244E06B46DB79890906
:1028D0009B00CB1869468E790320311C01408E0283
:1028E00099196B465E790F231E406B469B7A013126
:1028F000DF09F3199E1C131C03405A00B318DBB206
:10290000093B99400B1C25E080239B00138054E079
:102910000423474C218819401ED08D200021FEF74A
:102920005FF90028AFD1FF30FEF756F86846102156
:10293000FEF7A6F80028A6D03024013CFF20E4B220
:10294000FEF74AF8002CF8D16B4610229B7A1B093F
:102950009A40131C2B6063E00920FEF741F9061E24
:1029600091D168461021FEF78BF800288BD024887F
:102970000223201C18406B469A7ADB7A00280DD07F
:102980003F210A405200DB09D3185A1C6B465B7B7F
:10299000341C9B09013B9A402A6041E003241C40FF
:1029A0005106E4005A09C90EA318013101334B4303
:1029B0002B6002E01E4B1B881370002430E00920BE
:1029C00000E00A200021FEF70BF9002800D05AE7AA
:1029D000281C1021FEF754F81DE03A200021FEF7D4
:1029E000FFF8002800D04EE72C1DFF20FDF7F4FF74
:1029F00028700135A542F8D1DFE78D200021FEF7D0
:102A0000EFF8002800D03EE7FF30FDF7E5FF281C77
:102A10004021FEF787F844424441E4B200E0042438
:102A2000FDF7FCFF201C05B0F0BDC04618000020DB
:102A30009C010020D02370B588B00D1C03A90B8029
:102A4000CC3B6A464B8000231370012301AC0B8101
:102A500006334A60CC600B82FDF760FF0028FDD191
:102A60000A21235C2E181A0951430F221A408B1891
:102A7000DBB2013033700728F2D108B070BD10B559
:102A8000D02486B001AB1C80CF3C5C806C46627069
:102A9000022221701A81191C0294FDF73FFF0028C1
:102AA000FDD106B010BDD023F0B500240F1C8DB0B1
:102AB00007AD2B80CF3B6B8005AB01901C703B19A1
:102AC00018781B7805AEDBB200930A213319C0B227
:102AD000029301F0D7FDC0B203010A2100980393CD
:102AE00001F056FE039B01341943029B5970072CD9
:102AF000E5D108230198291C6E602B81FDF70EFF9C
:102B00000028FDD10DB0F0BD002310B5934203D0D5
:102B1000CC5CC4540133F9E710BD0000013A044B0A
:102B200092B29A4202D001700130F7E77047C04676
:102B3000FFFF0000F8B5C66A8E4201D100202EE0EA
:102B400003790D1C041C002B02D1002DF6D01DE0D2
:102B50004078216B321C0123FFF724FE002801D0AE
:102B600001201CE0E369226A20719B189E42ECD28E
:102B7000E778012FE9D9E3696078F618216B321CF8
:102B80000123013FFFF70EFEFFB2F2E76078216BF1
:102B90002A1C0123FFF7C0FD0028E1D1E562F8BD42
:102BA00070B50021041CFFF7C5FF051E6DD1237809
:102BB000032B62D16379002B5FD08022206B291C0C
:102BC0009200E562FFF7AAFFFF235522216B5B000D
:102BD000CA54216B2D4B9218CA54226BAE3BFF3B5B
:102BE0001370226BF2205370226B0F3393704122CB
:102BF000216B4000CA707221266B3154E620266B8F
:102C0000FF303154206B7531FF314254E822216B83
:102C1000FF328B54226B217C8833FF33D154EA235B
:102C2000627C216BFF33CA54F5222369216B1B0C94
:102C300052008B54EC222369216B1B0EFF328B5404
:102C4000F623226B217B5B00D154EE23627B216B48
:102C5000FF33CA54F722E368216B1B0C52008B54DC
:102C6000F022E368216B1B0EFF328B546078216BDE
:102C700062690123FFF796FD6571002160780A1CE7
:102C8000FFF7E2FD431E9841C0B270BDFF01000096
:102C900038B5051C0A1C4078296B0123FFF73CFD61
:102CA000041C0320002C3BD1FF212B6B1D4A490043
:102CB0009A5C595C12020A431B4912B201388A42DB
:102CC0002ED11A1C39321278201C11061A1C3832E7
:102CD000127812040A43191C363109780A43191C68
:102CE0003731097809020A4310491202120A8A424E
:102CF00016D01A1C55321078013A127800061204C8
:102D000010431A1C5333523212781B7810431B02A3
:102D100018430002064B000AC018431E9841C0B277
:102D200038BDC046FF01000055AAFFFF46415400D0
:102D3000BABEABFFF0B5036887B01C78303CA4B2D4
:102D4000092C06D9BB4B1C680C230C60002C0AD143
:102D50006DE15D783A2DF5D1023303600B23002C31
:102D600000D064E1EEE72378151C002B0DD06078CD
:102D7000FFF7C8FC0123034007D1002D00D156E125
:102D8000420700D453E10A2351E100202070607013
:102D9000FFF720FC0323C20700D548E1002D01D036
:102DA0004307F0D4201C0021FFF772FF002301939A
:102DB00001281ED1E122236B52009A5C002A01D126
:102DC0000D2334E1CA22FF329A5C201C1106E42252
:102DD00052009A5C12040A43E3214900595C0A43F9
:102DE000C821FF315B5C1B021A43111C0192FFF7E3
:102DF0004FFF0123032800D119E10028E0D1256B02
:102E00002B7BEA7A1B02134380221BB2920093426F
:102E1000D6D1EB7DAA7D1B0213430ED12B1C0833A8
:102E2000DB7F1A06EB1DDB7F1B0413436A1DD27F79
:102E30001343AA1DD27F120213430293029BE36144
:102E40002A7C531EE270012BBAD8697BA17000293D
:102E5000B6D04B1E1942B3D1AF7C6B7C3F021F43EF
:102E600027813B07ACD1287DEB7C000218430DD1B4
:102E70002B1DD87FEB1CDB7F00061B0418436B1C4B
:102E8000DB7F1843AB1CDB7F1B021843EB7BAE7B65
:102E90001B021E43039693D0029B53430593059A4E
:102EA0003B099B199B180493984289D3C01A01F0DF
:102EB000E9FB002884D0604B0126984204D95F4E7C
:102EC0008642B64176420236019A049B9446634498
:102ED000A362039B02306344A0612362032E17D1D7
:102EE000002F00D06CE72B1C2F331B7880001A06B4
:102EF0002B1C2E331B781B0413432A1C2C321278F4
:102F000013432A1C2D3212781202134363620FE01E
:102F1000002F00D154E7059AD3186362022E01D125
:102F2000400005E003230122434310405B081818CA
:102F3000434BC018029B400A834200D240E7012362
:102F40005B4223610023E360032E66D163712B1C77
:102F500031331A78013B1B7812021A43019B6078C7
:102F60009A186261291C0123FFF7D6FB002854D16F
:102F7000FF21236B324A49009A5C595C12020A43D2
:102F8000304912B28A4248D1DA7811069A7812048E
:102F90000A4319780A43597809020A432A498A429E
:102FA0003BD1E822FF329A5C1106F32252009A5C70
:102FB00012040A43F2214900595C0A43E621FF3119
:102FC000595C09020A4321498A4226D1F022FF3284
:102FD0009A5C1106F72252009A5C12040A43F62109
:102FE0004900595C0A43EE21FF31595C09020A434A
:102FF000E260EC22FF329A5C1106F52252009A5CE4
:1030000012040A43F4214900595C1143EA22FF32B9
:103010009A5C0B1C1202134323610D4A267013881D
:1030200001339BB21380E3800023E3622371181CF9
:1030300007B0F0BDA0010020F50F0000F5FF000073
:10304000FF01000055AAFFFF5252614172724161B7
:103050009E01002008B5092300280CD00278002A20
:1030600009D0C2888A4206D14078FFF74BFB032380
:10307000C007C0170340181C08BD836902399A1E97
:103080000023914203D28378826A59438B18181C1B
:103090007047F7B50124061C0F1EA7425FD983694C
:1030A00099425CD20378022B2BD0032B3BD0A34256
:1030B00053D18BB25D08ED18ADB2036A690AC91825
:1030C000FFF738FD002848D1EB05326BDB0DD35CF0
:1030D00001350193ADB2336A690AC918301CFFF794
:1030E00029FD002839D1ED05336BED0D5B5D019AAB
:1030F0001B021343274201D01C0930E01C05240D9C
:103100002DE0036A090AC918FFF714FD002824D12D
:10311000FF237F005B001F40336BDF197C783B7817
:1031200024021C431BE0036AC909C918FFF702FD0A
:10313000002812D1FE23BF005B001F40336BDF1954
:10314000FC78BB7824061B041C433B781C437B782B
:103150001B021C432401240901E001246442201CB9
:10316000FEBD70B5041C0D1CE1808168012901D1F0
:10317000022039E003689A699142F9D200290FD1FF
:103180001A78032A02D1596A002909D10022E26083
:103190001A89AA42ECD95A6A29098B18236119E0C5
:1031A0009E783601B5420ED32068FFF772FF011CEE
:1031B000431C18D00128DBD923689B699842D7D2D9
:1031C000AD1BADB2EEE7E1602068FFF756FF2B09BB
:1031D000181820610F2322681D40136B6D015D19C3
:1031E0006561002000E0012070BDF7B5051C0E1CD4
:1031F000141C0220012973D9AB69994270D22F782F
:10320000874240D0032F50D0012F67D18BB25A088C
:10321000D3189BB2590A01932B6A281CC918FFF7CF
:1032200089FC00285AD1019B3E40D9052B6BC90D62
:103230005918E3B2002E06D00F230A781340E2B2E9
:1032400012011343DBB20B700123019F2B71013775
:10325000BFB22B6A790AC918281CFFF76BFC00283B
:103260003CD1FF052B6BFF0DDF19002E02D0240986
:10327000E4B206E00F233A78240A9A4323401A4323
:10328000141C3C702AE02B6A090AC918281CFFF795
:1032900051FC002822D1FF2376005B001E402B6BDF
:1032A0009E193470240A747018E02B6AC909C91871
:1032B000281CFFF73FFC002810D1FE23B6005B005E
:1032C0001E402B6B9E19F3781B091B071C43230A16
:1032D00034707370230C240EB370F47001232B71BF
:1032E000FEBD0000F8B5051C0E1E06D1C768002FF4
:1032F0000ED083699F420CD30AE0FFF7CAFE012477
:10330000A0423ED9AB69041C371C984201D238E078
:1033100001273C1CAB6901349C4204D3012F01D826
:1033200000242EE00224281C211CFFF7B2FE0028F6
:1033300008D0431C01D0012801D1041C21E0BC426B
:10334000E8D1EDE7281C211C0F4AFFF74EFF0028AB
:1033500011D1002E08D12B69EC605A1C11D0013B11
:103360002B6101236B710CE0281C311C221CFFF720
:103370003CFF0028EFD00138444244416042012420
:103380000443201CF8BDC046FFFFFF0FF7B5C688F9
:103390000136B6B2002E01D104206DE00369002B86
:1033A000FAD00F2232400F1C041C0192002A5BD17C
:1033B000C168013303610068002903D10389B34266
:1033C000EAD951E083783209013B1A424CD1FFF728
:1033D00060FE051E012D01D802204DE0431C01D1E5
:1033E000012049E0206883699D4237D3002FD3D064
:1033F000E168FFF777FF051C0720002D3CD0012D69
:10340000EAD06B1CECD020680021FFF793FB009002
:103410000028E5D1802223680099186B9200FFF7FD
:103420007DFB2768291C381CFFF727FEF862009FE8
:1034300023689A78BA420ED901221A7120680021B5
:10344000FFF778FB0028CBD122680137D36AFFB29F
:103450000133D362ECE7DA6AD71BDF62E5602068EC
:10346000291CFFF70AFE206100202268019B126BD5
:103470005B01D318E6806361FEBD0000F0B50B78F8
:1034800085B0041C0D1C2F2B01D05C2B00D1013505
:103490000026A6602B781F2B06D8201C311CFFF7B6
:1034A00060FE6661E0E001352B782F2BFBD05C2BB2
:1034B000F9D0A66920210B22301CFFF72FFB002139
:1034C00008230A1C00910193009B581C83B20293AD
:1034D000009BEB5C202B46D92F2B44D05C2B42D099
:1034E0002E2B00D1A4E00198814200D39EE058B277
:1034F000002801DA032002437F2084469C44604672
:103500006F46F873F87B1E2807D9202084469C4418
:103510006046F873F87B1C281CD8009F0237B8B2AD
:10352000844602982F5C381C40383E2803D9403826
:10353000C0B27C287AD801980138814276DA735477
:103540006346481C80B2023189B237540293029B11
:103550000093B9E700274548C05D002871D00137C6
:103560009842F8D162E0029820272D1800209F424F
:1035700040418300002959D03178E52901D1E03953
:1035800031700199082901D19200D2B20321114072
:10359000012902D10F310B43DBB20C210A40042A6E
:1035A00002D104321343DBB2F372201C0021FFF777
:1035B000D8FD00281CD120682169FFF7BBFA00283C
:1035C00016D161690B78002B11D00823CA7A1A40F2
:1035D00008D1A6698B5CB05C0132181A02D10B2AA3
:1035E000F8D105E0201C0021FFF7D0FEE1E7042020
:1035F000A369DB7A002805D0042835D1034233D1F2
:10360000013031E05B072FD46069C37ADB060BD54C
:10361000437D017D1B020B43C27E1904837E12028F
:1036200013430B43A3603FE705201DE006201BE08A
:10363000019B082BFAD10B2392000199D2B201937E
:1036400085E71F1C413F192F02D802273A4307E0A4
:103650001F1C613F192F03D80127203B3A43DBB2DF
:103660004F1C7354B9B272E705B0F0BD8050000032
:1036700070B50021041CFFF774FD051E24D12068DD
:103680002169FFF757FA051E1ED163691B78E52BE8
:1036900006D0002B04D0201C0121FFF777FEECE7B9
:1036A00020682169FFF746FA051E0DD16669291CBD
:1036B000301C2022FFF732FA0B22301CA169FFF7E1
:1036C00023FA012223681A71281C70BD70B5041CEE
:1036D0000D1E012D01D8022022E083699942FAD201
:1036E000A3699D4205D2201C291CFFF7D2FC061EAF
:1036F00001D1002014E00128EDD0431C0FD0201C84
:10370000291C0022FFF771FD002809D123695A1CEA
:1037100003D00133236101236371351CE0E70120ED
:1037200070BD000010B5041C0B20002C0CD1074B01
:103730001A68002A00D01470002903D000201960F4
:10374000087001E04B78FFDE10BDC046A0010020EC
:10375000F0B51F270023151C17401E228DB00360F3
:103760000191061C2A4001A805A9FFF7E3FA02AB64
:103770000B93002803D105A80199FFF77FFE0A9C4F
:10378000002802D1002C00D106301C231D4247D056
:1037900000280AD0042802D105A8FFF769FF0823F2
:1037A0000A9C1F43002808D06AE01123E27A072010
:1037B0001A4265D101306B0762D43B073BD500F05C
:1037C0009FFB030AE373030C23740023657D227DB2
:1037D0002D0215432A04E57EA17EA073000E6074BD
:1037E0002D020598E37223776377A377E377A376B7
:1037F000E376237563750D430133154303711AD0C6
:10380000C36A291C0093FFF761FF002838D105988F
:10381000013DC5600099FFF78DF900280BD02FE01E
:1038200000282DD1E37A0430DA0629D4AA0702D57C
:103830000330DB0724D43B0701D520231F4300209E
:10384000059DEB6A3462F361B771637D217D1B02D4
:10385000E27E0B431904A37E120213430B43336130
:10386000E37F1A06A37F1B041343227F1343627F67
:10387000B06012021343F360B0613560EB88B3802F
:103880000DB0F0BDF0B585B003930023161C039A6C
:10389000009113808188041C0068FFF7DBFB031E86
:1038A00000D0C1E00222A179131C4DB2002D00DA34
:1038B000BAE00533114200D1B6E0E368F2189A424B
:1038C000404140420640002E1AD0A268D30572D172
:1038D0002068530A8578013D2B40DDB2002D1BD1B5
:1038E000002A07D12169002911D1FFF7FBFC011C37
:1038F000206103E06169FFF7F5FC011C002906D196
:10390000A368E268934200D889E0E36087E0012978
:1039100014D04B1C61D061612068A269C36A9342D4
:1039200004D10021FFF706F9002856D12368616908
:10393000181C0193FFF7A1FB002806D18022A37970
:1039400052421343A37102236EE043190293770A94
:1039500022D0019BEA199B789A4201DD5D1BAFB230
:10396000019B00995878029AFBB2FEF71BFF051ED7
:1039700033D123680299DA6A511AB94209D2009AFE
:10398000490251188022186B9200FFF7BDF8236896
:103990001D717D02ADB234E0A368E268934208D3A2
:1039A0000198391CFFF7C6F8002816D12368029A3F
:1039B000DA62029BA3618022A3689200DB05DB0D23
:1039C000D31A9BB2351C9E4200D91D1C2068A169E8
:1039D000ADB2FFF7AFF8002806D08022A37952429B
:1039E0001343A37101231FE0A2682368D0051B6B5A
:1039F000C00D18182A1C0099FFF786F801232268C9
:103A00001371009B039A5B190093A368761B5B19E3
:103A1000A360039BB6B21B88EB18138053E72022E8
:103A2000A3791343A3710023181C05B0F0BD70B532
:103A3000041C81880068FFF70DFB002833D1202685
:103A4000A37933422FD02068E169FFF773F800288B
:103A500029D1256AEB7A3343EB72237B2B77637B87
:103A60006B77E3681B0CAB77E3681B0EEB77237C6B
:103A7000AB76637CEB7623691B0C2B7523691B0EDD
:103A80006B7500F03DFA030AA875EB75030C000E88
:103A90002B766876A3792268B343A371012313714F
:103AA0002068FFF77DF870BD10B5041CFFF7BFFF5D
:103AB000002800D1206010BDF7B5041C0D1C8188C2
:103AC0000068FFF7C7FA002800D089E0A279023029
:103AD00053B2002B00DA83E0E3689D4202D9024230
:103AE00000D11D1C0022A368A260954201D10020D4
:103AF00066E02768BE787602002B14D0013B311CAB
:103B0000681E009300F0BEFD311C0190009800F08B
:103B1000B9FD019B834206D3009A73421A40A2600A
:103B2000AD1A61690CE02169002908D1381CFFF742
:103B3000D9FB011E012924D0431C1BD020616161E7
:103B40000029D4D00AE001291BD923689B69994236
:103B500017D2A36861619B19A360AD1BB5421CD944
:103B6000A37920689B0713D5FFF7BCFB011E13D078
:103B70004B1CE8D18022A37952421343A371012048
:103B80002EE08022A37952421343A371022027E042
:103B9000FFF77FFA011CEBE7351CA3685B19A360F4
:103BA000EB05A4D02068FFF768FA002806D1802230
:103BB000A37952421343A371023011E06D0A4019F8
:103BC000A368DA0503D0A269904200D0A061E26840
:103BD0000020934204D92022E360A3791343A37108
:103BE000FEBD37B5041C0D1C0A2802D10D20FFF7BD
:103BF000F8FF6B4601A90C709C1C231C281C012299
:103C0000FFF740FE20880138431E984101234042BF
:103C100018433EBD70B5051C0E1C041C2378601BA8
:103C2000002B07D0181C311CFFF7DBFF431C01D011
:103C30000134F3E770BD0EB4F0B58CB001900020F4
:103C4000041C11AB04CB0793531C04931378002B73
:103C500000D112E1252B0AD0181C0199FFF7C1FFF2
:103C6000431C00D10CE101202418049AECE755789C
:103C7000302D03D1D31C9578012207E02D2D02D0E1
:103C8000931C002202E0D31C9578022200920022AD
:103C900002922A1C303A0493092A09D80A2202996E
:103CA0004A435519303DAAB202921D780133F0E71C
:103CB0002022291C91430A1E4C2A07D10099483A18
:103CC00011431A1C1D78013200910492002D00D17D
:103CD000D3E02A1C613A2B1C192A01D8203BDBB205
:103CE0004F2B15D008D8432B3ED0442B49D002226D
:103CF0000392422B47D03FE0552B42D0582B39D06E
:103D0000532B39D1079B00251A1D07921F6801E02C
:103D1000082237E07E5D002E02D00135ADB2F9E712
:103D2000009B9B070BD4029A2B1C0135ADB293422A
:103D300005D220200199FFF754FF3618F3E7381C0D
:103D40000199FFF767FF3618029B9D4207D220209A
:103D50000199FFF746FF01353618ADB2F4E7431C71
:103D600000D18DE0301C83E0079B18681A1D079274
:103D7000C0B202E0102205E0281C0199FFF731FFD4
:103D800076E00A2203920099079A490705D5111D8A
:103D900007911468442B11D109E0442B03D1131D62
:103DA0000793146803E0131D0793146806E0002CC2
:103DB00004DA0823009A64421A4300920027201C68
:103DC000039900F0E5FC201CCBB20E1C039905936F
:103DD00000F058FC041C092E07D92723782D00D0A9
:103DE000203B059A9B18DBB20593059B791C08AA1A
:103DF00030338EB2BB54002C03D00F1E102FDED1F7
:103E00000E1C009B1B0703D52D21731C91559EB2E0
:103E1000009B3027DB0700D4103F351C0024009B9B
:103E20009B070DD46B1C9BB20393029B9D4206D251
:103E3000381C0199FFF7D5FE039D2418EFE7039D79
:103E4000731E9EB208AB985D0199FFF7CAFE241855
:103E5000002EF5D1029B9D4207D220200199FFF749
:103E6000C0FE01352418ADB2F4E7431C08D0201C75
:103E70002418431C00D0F8E602E0431C00D0201CAC
:103E80000CB0F0BC08BC03B01847000038B5051CE6
:103E9000184C2023002801DA2D2345422370FA21F3
:103EA0000023281C6371890000F062FD081C642156
:103EB00000F078FC2E233030E37020710E49281C6E
:103EC00000F056FD081CFA21890000F06BFC303030
:103ED000A0700A49281C00F04BFD081C064900F0A0
:103EE00061FC3030C0B2302801D0607001E0202386
:103EF000637038BD4E0B002010270000A086010023
:103F0000094B18784208587899784001C90208434B
:103F100010431A79120410435A799B7952051043C1
:103F20005B0618437047C046B801002038B512221E
:103F3000051CFFF70DFC041E08D1281CE968FFF7DB
:103F4000BBFD041E02D0281CFFF7AEFD201C38BDAF
:103F5000F7B5071C0191FCF7F3FC0020FEF73AFBD4
:103F60000123002852D12A49FFF7DCFB0223002855
:103F70004CD1284C2849201CFFF7D8FF03230028E8
:103F800044D10C23E356002B28D0244D2449AA7990
:103F9000201CD2B2FFF74FFE224E6A79311CD2B2FA
:103FA000201CFFF748FE2A79311CD2B2201CFFF7F3
:103FB00042FEAA78311CD2B2201CFFF73CFE6A7880
:103FC000311CD2B2201CFFF736FE2A78201CD2B258
:103FD0001549FFF730FE030606D407E0201C1349FD
:103FE000FFF729FE0306D0D504230FE0019B201C18
:103FF0000F493A1CFFF71FFE0306F5D4201CFFF7FC
:1040000053FD421E904105234042034058B2FEBD7D
:10401000180B00205C0B0020DC500000B8010020D1
:10402000E6500000E8500000ED500000F3500000A2
:1040300009510000304B70B599691962CB0505D55F
:1040400007222E4803780133134003708B050AD5ED
:10405000012310242A480268120993431A010378A5
:10406000A343134303702026314243D0254B05213F
:104070001A68551C1D60281C00F08AFB204C002982
:104080000BD12368DB06DB0F5A012378B3431343BC
:1040900002222370237813432370184B1E78F6B244
:1040A000002E23D1281C782100F072FB002904D1B6
:1040B000042223781343237018E0134B1A7801323B
:1040C000D2B21A701A783B2A10D91E705A7801326F
:1040D000D2B25A705A783B2A08D95E709A78013267
:1040E000D2B29A709A78172A00D99E70012223784A
:1040F0001343237070BDC046FC600040A80100203F
:10410000A4010020B4010020B801002008B5FFF789
:1041100091FF08BD08B5FFF78DFF08BDF7B5714BDE
:10412000714D6B600023281CAB60FDF702F96F49ED
:10413000281CFDF7BDFB3A206D4A6E4F91783B6815
:104140004900C95C6C4C2170917849005918497834
:10415000A070617051784900C95CE17051784900E4
:104160005918497860712171117812784900C95C39
:104170005200A1719B185B780822E37169230093B8
:10418000683B0193281C211CFDF750FB5B4B1A7800
:10419000002A28D018780138062824D800F068FAB8
:1041A0000404040F0F0F1C00302219781B7801390A
:1041B000013B51435343013121334D3209E0182271
:1041C00019781B780439043B514353431031203391
:1041D00044320092281C04E06922281C012120237B
:1041E0000092FDF7ABF9464B01261868FFF74EFE2B
:1041F00043236371393B211C062200930196163339
:10420000281CFDF713FB3F4B1868FFF73FFE2523E3
:1042100063710333211C062200930196083B281C7E
:10422000FDF704FB3849281CFDF742FB32232370BD
:10423000023B63703B682E4F2F21BA79281CB24095
:10424000D25CA270BA79B2409A1852782171E270A9
:104250007A79B240D25C62717A79B2409A18527817
:10426000E171A2713A79211CB240D25C22723A7992
:10427000B2409B185B780A22637253230196009325
:10428000331CFDF7D3FAF8780721C0B200F080FAAA
:10429000FF78CCB2FFB2381C072100F079FA1B4B33
:1042A000C9B25A5C60230093194BA4000196E158EF
:1042B000281C331CFDF7BAFA164C23689B093342BD
:1042C0000CD00C23032200930196331C281C1249A6
:1042D000FDF7ACFA4022237893432370FCF774FF78
:1042E000F7BDC046FFFFFF00880B0020144E000002
:1042F000B80100201C0000204E0B0020A801002067
:10430000AC010020B0010020E44A00001A52000075
:1043100020000020A401002014510000F0B58BB053
:1043200004AE321CC44B012513CB13C213CB13C2F2
:10433000C24B052101203361FDF78AFD0420FDF702
:1043400021FDFCF70BF8BE480121FDF7F1FB03202E
:10435000052101220023FDF797FE002405210320FB
:104360000A1C2B1C00940195FDF752FE0220082127
:10437000021C2B1CFDF788FE082102200A1C231CAE
:1043800000950195FDF744FE02200921021C2B1C1B
:10439000FDF77AFE0921231C0A1C009501950220D5
:1043A000FDF736FEC02102274022A64B49005F5090
:1043B0001F605A501A60FCF729F8A04200D0FEE7AF
:1043C000FCF7C6FE002800D0FEE79F48FCF782FFFE
:1043D0000390002800D0FEE79C4B9D4A1B689D4C33
:1043E0001363802292009B189B4A301C13600422A6
:1043F00023781D43257023781F43277023781343A8
:10440000237023780C329343237023781032934324
:1044100023702378183A93432370FCF735FA0E2162
:104420008E48039AFEF72BFB8D4D8C48291CFEF716
:1044300001FB0020FDF7C6FD23689B0709D5894ACB
:10444000894B86488021FCF763FC02222378934342
:1044500023702368854E1B0709D53378002B06D1BE
:104460007E48291CFEF71FFB2378082208E02368FA
:104470005B0707D57948291CFEF7DCFA042223786C
:1044800093432370012723683B4204D0FFF746FE85
:104490002378BB4323703378002B00D1B2E0FBF7C5
:1044A0001FFF0320FBF70CFF00284CD00420FBF774
:1044B00007FF002847D10822237813432370307860
:1044C00001380628B5D800F0D3F8040C141C242DAC
:1044D0003600A8781821013000F04AFAC9B2A97054
:1044E000A7E768783C21013000F042FAC9B2697050
:1044F0009FE728783C21013000F03AFAC9B22970D0
:1045000097E7A8796421013000F032FAC9B2A971A5
:104510008FE768790C21013000F02AFA0131C9B225
:10452000697186E728791F21013000F021FA0131F5
:10453000C9B229717DE7E8780721013000F018FA47
:10454000C9B2E97075E70320FBF7BAFE002859D11C
:104550000430FBF7B5FE002854D00822237813431B
:10456000237030780138062800D962E700F080F81F
:10457000040E18222C364000AB78002B01D11733E3
:1045800002E0AB78013BDBB2AB7052E76B78002BFB
:1045900001D13B3302E06B78013BDBB26B7048E743
:1045A0002B78002B01D13B3302E02B78013BDBB2AF
:1045B0002B703EE7AB79002B01D1633302E0AB797E
:1045C000013BDBB2AB7134E76B79012B01D10B33CB
:1045D00002E06B79013BDBB26B712AE72B79012B8F
:1045E00001D11E3302E02B79013BDBB22B7120E7B6
:1045F000EB78002B01D1063302E0EB78013BDBB214
:10460000EB7016E723689B0600D412E7164B186878
:10461000144B1968FFF79CFC2022237893432370E6
:104620002378921813432370FCF78CF8FCF748F8B2
:10463000FCF792F8FDE6C046C4500000DDFB050023
:104640000072040000E100E0880B00204801002017
:10465000180B0020A4010020C001002000A0004091
:10466000B8010020B0010020AC010020A80100200A
:1046700002B4714649084900095C49008E4402BCF5
:104680007047C046002243088B4274D303098B4213
:104690005FD3030A8B4244D3030B8B4228D3030C12
:1046A0008B420DD3FF22090212BA030C8B4202D3B4
:1046B0001212090265D0030B8B4219D300E0090ADC
:1046C000C30B8B4201D3CB03C01A5241830B8B42E5
:1046D00001D38B03C01A5241430B8B4201D34B03CE
:1046E000C01A5241030B8B4201D30B03C01A524133
:1046F000C30A8B4201D3CB02C01A5241830A8B42B8
:1047000001D38B02C01A5241430A8B4201D34B02A0
:10471000C01A5241030A8B4201D30B02C01A524104
:10472000CDD2C3098B4201D3CB01C01A52418309B8
:104730008B4201D38B01C01A524143098B4201D3F2
:104740004B01C01A524103098B4201D30B01C01A1D
:104750005241C3088B4201D3CB00C01A5241830897
:104760008B4201D38B00C01A524143088B4201D3C4
:104770004B00C01A5241411A00D201465241104624
:104780007047FFE701B5002000F0FCF802BDC0460D
:104790000029F7D003B5FFF775FF0EBC4243891A15
:1047A0001847C04603460B437FD4002243088B4280
:1047B00074D303098B425FD3030A8B4244D3030BA8
:1047C0008B4228D3030C8B420DD3FF22090212BA6D
:1047D000030C8B4202D31212090265D0030B8B42E9
:1047E00019D300E0090AC30B8B4201D3CB03C01AD3
:1047F0005241830B8B4201D38B03C01A5241430BAE
:104800008B4201D34B03C01A5241030B8B4201D39D
:104810000B03C01A5241C30A8B4201D3CB02C01A08
:104820005241830A8B4201D38B02C01A5241430A80
:104830008B4201D34B02C01A5241030A8B4201D36F
:104840000B02C01A5241CDD2C3098B4201D3CB0116
:10485000C01A524183098B4201D38B01C01A5241C5
:1048600043098B4201D34B01C01A524103098B42C9
:1048700001D30B01C01A5241C3088B4201D3CB00B4
:10488000C01A524183088B4201D38B00C01A524197
:1048900043088B4201D34B00C01A5241411A00D247
:1048A00001465241104670475DE0CA0F00D04942B0
:1048B000031000D34042534000229C4603098B4220
:1048C0002DD3030A8B4212D3FC22890112BA030AA8
:1048D0008B420CD3890192118B4208D3890192112A
:1048E0008B4204D389013AD0921100E08909C309AF
:1048F0008B4201D3CB01C01A524183098B4201D3B1
:104900008B01C01A524143098B4201D34B01C01A9B
:10491000524103098B4201D30B01C01A5241C30813
:104920008B4201D3CB00C01A524183088B4201D382
:104930008B00C01A5241D9D243088B4201D34B009D
:10494000C01A5241411A00D20146634652415B10DF
:10495000104601D34042002B00D5494270476346C0
:104960005B1000D3404201B5002000F00BF802BDFF
:104970000029F8D003B5FFF715FF0EBC4243891A92
:104980001847C0467047C0461C2101231B049842AB
:1049900001D3000C10391B0A984201D3000A0839D0
:1049A0001B09984201D30009043902A2105C401887
:1049B0007047C0460403020201010101000000002B
:1049C00000000000084B10B5041C002B02D0002191
:1049D00000E000BF054B1868836A002B00D09847A1
:1049E000201CFCF771F9C046000000008452000052
:1049F0000E4B70B500251E1C0D4CE41AA410A542E8
:104A000004D0AB00F35898470135F8E700F028F8D8
:104A1000084B00251E1C084CE41AA410A54204D023
:104A2000AB00F35898470135F8E770BD9C000020B3
:104A30009C0000209C000020A0000020002310B556
:104A4000934203D0CC5CC4540133F9E710BD031C7E
:104A50008218934202D019700133FAE770470000C0
:104A6000F8B5C046F8BC08BC9E467047F8B5C046CD
:104A7000F8BC08BC9E46704700000000070000001C
:104A8000070503003D0000000100000000000001D8
:104A9000010000005368617270204C533031334282
:104AA0003744483033202331000000000500000067
:104AB0000000000040420F0005010000000000005F
:104AC00000000000010001000500000000000000DF
:104AD00040420F000501000000000000000000003F
:104AE00001000100F44A00002003016408080200EC
:104AF0000100000000186C6C10CE3808600C00003B
:104B0000000000007C307C7CC6FE7CFE7C7C0000CB
:104B100070001C7C7C7C7E7C7EFEFE7CC63C78C665
:104B200006C6C67C7E7C7E7C7EC6C6C6C6C6FE7CAD
:104B3000007C10000C000600600038000600000633
:104B40000C00000000000000000000000000003029
:104B500018188C000000000000186CFEFC6A2C186D
:104B600030186C18000000C0C638C6C6C606C6C0DD
:104B7000C6C61818387C38C6C6C6C6C6C60606C617
:104B8000C618306606EECEC6C6C6C6C618C6C6C6A7
:104B9000C6C6C00C066038000C00060060000C00A1
:104BA000061830060C00000000000000180000008D
:104BB000000000181830D60000000000001848FE61
:104BC000162E2C181830381800000060C63060C04F
:104BD000C6060660C6C618181C7C70C6F6C6C60691
:104BE000C6060606C618303606FEDEC6C6C6C606A9
:104BF00018C6C6C66CC6600C0C606C00043C3E3C1B
:104C00007C3C3C3C3E0000660C6E3E3C3E3C363CF0
:104C1000186666C666667E181830620000000000DE
:104C20000018006C7C10DC001830FE7E1C7E00300A
:104C3000C6303070FE7E7E307CFC00000E00E070DE
:104C4000F6FE7E06C61E1EF6FE18301E06D6F6C6F8
:104C50007EC67E7C18C6C6D638FC300C1860C600EE
:104C60000060660666660C66661830360CD66666A8
:104C700066666E067C6666C63C66300C00600000A8
:104C800000000000000000FED0E866001830387E0A
:104C90001C7E1C18C63018C0C0C0C618C6C0181864
:104CA0001C7C703076C6C606C60606C6C6183036E8
:104CB00006C6E6C606B6C6C018C6C6FE6CC0180C48
:104CC00030600000007C6606667E0C7C6618301E34
:104CD0000CD666663E56063C186666D6187C1818D2
:104CE0001830000000000000001800FE7EAC6600D6
:104CF00030186C1818001C0CC6300CC6C0C6C60C88
:104D0000C6C61818387C380006C6C6C6C60606C60B
:104D1000C618366606C6C6C60666C6C618C66CEE91
:104D2000C6C00C0C606000FE0066660666060C607D
:104D3000661836360CC666660626066018663CD6C9
:104D40003C600C1818300000000000000018006CD7
:104D500010E6DC00600C00180C001C067C78FE7C61
:104D6000C07C7C067C7C000C70001C307CC67E7C89
:104D70007EFE06FCC63C1CC6FEC6C67C06DCC67CA7
:104D8000187C38C6C67EFE7CC07C00FE007C3E3CA3
:104D90007C3C0C3E66701C6638C6663C065C063E73
:104DA000707C18FC663E7E30181800000000000081
:104DB00000000000000000000000000000000000F3
:104DC00000000000000000000000000000000000E3
:104DD00000000000000000000000000000000000D3
:104DE00000000000000000000000000000000000C3
:104DF00000000000000000000000000000000000B3
:104E000000000000000000000000000000000000A2
:104E100000000000244E00005802020F101405008C
:104E20000200000000000000000000000000000080
:104E30000000000000000000000000000000000072
:104E40000000000000000000000000000000000062
:104E50000000000000000000000000000000000052
:104E6000C0030003C007E003000FF81F001FFC1F72
:104E7000E007E003000000000000E0030010F00F76
:104E8000E003E00FF00F800FF81FC03FFC1FF80F8A
:104E9000F007000000000000F80F3C18781EFC032B
:104EA000701C380E800F3800E0310C1C381C380E96
:104EB0008001000000001C1C7608381CBC03383838
:104EC000181CC00F380070000C1C1C381C1CC003C0
:104ED000000000000C18C30C1C3880033838001C7C
:104EE000E00E38003800000E1C381C18C00300000B
:104EF00000000E1842041C3880033838001CE00EF5
:104F0000B8073800000E1C381C3880010000000073
:104F1000060066061C388003003C000E700EF80F79
:104F2000DC07000E381C1C380000000000000600E2
:104F30007C021C388003001CC007700E381CFC0F5C
:104F40000007F00F1C3C00000000000006000003FA
:104F50001C388003000EC007380E18387C1C000770
:104F6000F00F383E000000000000060000031C386F
:104F700080030007001E1C0E00383C3C0007381C54
:104F8000F03F000000000000060000711C388003A4
:104F90008003003CFC3F00383C3880071C38E03B75
:104FA000800100000000061080791C388003C001D9
:104FB0000038FC3F00381C3880031C38003CC0031C
:104FC000000000000E1880081C388003E000003844
:104FD000000E00381C3880031C38001CC003000081
:104FE00000000C18C00C381C800370000038000E44
:104FF0000038383880031C38000E800100000000A3
:105000001C1C600C781E800338000C1C000E0C1C4D
:10501000381CC001381C8C0F000000008003F80F02
:105020002078F00FFC7FFC3FFC1FC03FFC0FF01FFF
:10503000C001F81FFC03000000008003E0032070A3
:10504000C003FC7FFC3FF007C03FF007C007C00172
:10505000E007F800000000008003000000000000EE
:105060000000000000000000000000000000000040
:105070000000000000008003000000000809110883
:10508000222A2B2C3A3B3C3D3E3F5B5D7C7F00EB74
:10509000FE904D53444F53352E30004E4F204E411D
:1050A0004D45202020204641543332202020004E00
:1050B0004F204E414D4520202020464154202020A5
:1050C0002020000000A00040040D040C0600000099
:1050D00000000000486B01000000000057534C4FD7
:1050E000472E545854003230253032640025303277
:1050F000642C0074656D70657261747572652C68DE
:10510000756D69646974790A00253033642C253023
:1051100033640A005245430030303031303230338E
:105120003034303530363037303830393130313155
:10513000313231333134313531363137313831393B
:105140003230323132323233323432353236323733
:105150003238323933303331333233333334333519
:1051600033363337333833393430343134323433FF
:1051700034343435343634373438343935303531E5
:1051800035323533353435353536353735383539CB
:1051900036303631363236333634363536363637C3
:1051A00036383639373037313732373337343735A9
:1051B000373637373738373938303831383238338F
:1051C0003834383538363837383838393930393175
:1051D000393239333934393539363937393839395B
:1051E0000053756E646179004D6F6E64617900548F
:1051F000756573646179005765646E657364617980
:1052000000546875727364617900467269646179EB
:105210000053617475726461790006060709080617
:105220000800000000000000000000000000000076
:10523000000000000000000000000000000000006E
:10524000000000000000000000000000000000005E
:10525000000000000000000000000000000000004E
:10526000000000000000000000000000000000003E
:10527000000000000000000000000000000000002E
:0C528000000000003C00002000000000C6
:08528C0060AEFF7F010000008D
:105294000080000000366E01D5050000000000000B
:1052A400C801002000100000010000001851000097
:1052B400E1510000E8510000EF510000F7510000F7
:1052C400015200000A5200001152000000000000C8
:1052D4002452000044520000645200000000000008
:1052E4000000000000000000000000001651000053
:1052F40000000000000000000000000000000000AA
:105304000000000000000000000000000000000099
:105314000000000000000000000000000000000089
:10532400000000000000000000000000B5000000C4
:085334008D00000000000000E4
:040000030000016593
:00000001FF
